{"abi":[{"inputs":[],"stateMutability":"nonpayable","type":"constructor","name":"constructor"},{"inputs":[{"internalType":"address","name":"","type":"address"}],"name":"addressToAmountFunded","outputs":[{"internalType":"uint256","name":"","type":"uint256"}],"stateMutability":"view","type":"function"},{"inputs":[],"name":"fund","outputs":[],"stateMutability":"payable","type":"function"},{"inputs":[{"internalType":"uint256","name":"","type":"uint256"}],"name":"funders","outputs":[{"internalType":"address","name":"","type":"address"}],"stateMutability":"view","type":"function"},{"inputs":[{"internalType":"uint256","name":"ethAmount","type":"uint256"}],"name":"getConversionRate","outputs":[{"internalType":"uint256","name":"","type":"uint256"}],"stateMutability":"view","type":"function"},{"inputs":[],"name":"getPrice","outputs":[{"internalType":"uint256","name":"","type":"uint256"}],"stateMutability":"view","type":"function"},{"inputs":[],"name":"getVersion","outputs":[{"internalType":"uint256","name":"","type":"uint256"}],"stateMutability":"view","type":"function"},{"inputs":[],"name":"owner","outputs":[{"internalType":"address","name":"","type":"address"}],"stateMutability":"view","type":"function"},{"inputs":[{"internalType":"address","name":"_receiver","type":"address"},{"internalType":"uint256","name":"_amount","type":"uint256"}],"name":"withdraw","outputs":[],"stateMutability":"payable","type":"function"},{"inputs":[],"name":"withdrawBackEth","outputs":[],"stateMutability":"payable","type":"function"}],"bytecode":"608060405234801561001057600080fd5b50600280546001600160a01b0319163317905561064c806100326000396000f3fe6080604052600436106100865760003560e01c80638da5cb5b116100595780638da5cb5b1461011957806398d5fdca1461014a578063b60d42881461015f578063dc0d3dff14610167578063f3fef3a31461019157610086565b80630d8e6e2c1461008b5780633e47d6f3146100b25780636e5b6b28146100e557806387aa27551461010f575b600080fd5b34801561009757600080fd5b506100a06101bd565b60408051918252519081900360200190f35b3480156100be57600080fd5b506100a0600480360360208110156100d557600080fd5b50356001600160a01b0316610243565b3480156100f157600080fd5b506100a06004803603602081101561010857600080fd5b5035610255565b610117610275565b005b34801561012557600080fd5b5061012e610320565b604080516001600160a01b039092168252519081900360200190f35b34801561015657600080fd5b506100a061032f565b6101176103c1565b34801561017357600080fd5b5061012e6004803603602081101561018a57600080fd5b503561047e565b610117600480360360408110156101a757600080fd5b506001600160a01b0381351690602001356104a5565b600080738a753747a1fa494ec906ce90e9f37563a8af630e9050806001600160a01b03166354fd4d506040518163ffffffff1660e01b815260040160206040518083038186803b15801561021057600080fd5b505afa158015610224573d6000803e3d6000fd5b505050506040513d602081101561023a57600080fd5b50519150505b90565b60006020819052908152604090205481565b60008061026061032f565b670de0b6b3a764000093029290920492915050565b6002546001600160a01b0316331461028c57600080fd5b60405133904780156108fc02916000818181858888f193505050501580156102b8573d6000803e3d6000fd5b5060005b6001548110156102ff576000600182815481106102d557fe5b60009182526020808320909101546001600160a01b031682528190526040812055506001016102bc565b50604080516000815260208101918290525161031d9160019161053f565b50565b6002546001600160a01b031681565b600080738a753747a1fa494ec906ce90e9f37563a8af630e90506000816001600160a01b031663feaf968c6040518163ffffffff1660e01b815260040160a06040518083038186803b15801561038457600080fd5b505afa158015610398573d6000803e3d6000fd5b505050506040513d60a08110156103ae57600080fd5b50602001516402540be400029250505090565b6802b5e3af16b1880000806103d534610255565b1015610428576040805162461bcd60e51b815260206004820152601a60248201527f596f75206e65656420746f2073656e64206d6f72652045544821000000000000604482015290519081900360640190fd5b5033600081815260208190526040812080543401905560018054808201825591527fb10e2d527612073b26eecdfd717e6a320cf44b4afac2b0732d9fcbe2b7fa0cf60180546001600160a01b0319169091179055565b6001818154811061048b57fe5b6000918252602090912001546001600160a01b0316905081565b3360009081526020819052604090205481118015906104d257503360009081526020819052604090205415155b61050d5760405162461bcd60e51b815260040180806020018281038252604e8152602001806105c9604e913960600191505060405180910390fd5b33600090815260208190526040808220805484900390556001600160a01b039390931681529190912080549091019055565b828054828255906000526020600020908101928215610594579160200282015b8281111561059457825182546001600160a01b0319166001600160a01b0390911617825560209092019160019091019061055f565b506105a09291506105a4565b5090565b61024091905b808211156105a05780546001600160a01b03191681556001016105aa56fe546869732069732065697468657220686176696e672061207a65726f2062616c616e6365206f72206973206c657373207468616e2074686520616d6f756e7420666f72207769746864726177616ca264697066735822122014a72d6b61098943beed97ff07f6712d7da0e9fdcab116bf766be19b76f2686864736f6c63430006000033","bytecodeSha1":"c75e254cafde3fec08d7a7c383fd95f7d5eadd46","compiler":{"evm_version":"istanbul","optimizer":{"enabled":true,"runs":200},"version":"0.6.0+commit.26b70077"},"contractName":"FundMe","language":"Solidity","natspec":{"methods":{}},"opcodes":"PUSH1 0x80 PUSH1 0x40 MSTORE PUSH1 0x4 CALLDATASIZE LT PUSH2 0x86 JUMPI PUSH1 0x0 CALLDATALOAD PUSH1 0xE0 SHR DUP1 PUSH4 0x8DA5CB5B GT PUSH2 0x59 JUMPI DUP1 PUSH4 0x8DA5CB5B EQ PUSH2 0x119 JUMPI DUP1 PUSH4 0x98D5FDCA EQ PUSH2 0x14A JUMPI DUP1 PUSH4 0xB60D4288 EQ PUSH2 0x15F JUMPI DUP1 PUSH4 0xDC0D3DFF EQ PUSH2 0x167 JUMPI DUP1 PUSH4 0xF3FEF3A3 EQ PUSH2 0x191 JUMPI PUSH2 0x86 JUMP JUMPDEST DUP1 PUSH4 0xD8E6E2C EQ PUSH2 0x8B JUMPI DUP1 PUSH4 0x3E47D6F3 EQ PUSH2 0xB2 JUMPI DUP1 PUSH4 0x6E5B6B28 EQ PUSH2 0xE5 JUMPI DUP1 PUSH4 0x87AA2755 EQ PUSH2 0x10F JUMPI JUMPDEST PUSH1 0x0 DUP1 REVERT JUMPDEST CALLVALUE DUP1 ISZERO PUSH2 0x97 JUMPI PUSH1 0x0 DUP1 REVERT JUMPDEST POP PUSH2 0xA0 PUSH2 0x1BD JUMP JUMPDEST PUSH1 0x40 DUP1 MLOAD SWAP2 DUP3 MSTORE MLOAD SWAP1 DUP2 SWAP1 SUB PUSH1 0x20 ADD SWAP1 RETURN JUMPDEST CALLVALUE DUP1 ISZERO PUSH2 0xBE JUMPI PUSH1 0x0 DUP1 REVERT JUMPDEST POP PUSH2 0xA0 PUSH1 0x4 DUP1 CALLDATASIZE SUB PUSH1 0x20 DUP2 LT ISZERO PUSH2 0xD5 JUMPI PUSH1 0x0 DUP1 REVERT JUMPDEST POP CALLDATALOAD PUSH1 0x1 PUSH1 0x1 PUSH1 0xA0 SHL SUB AND PUSH2 0x243 JUMP JUMPDEST CALLVALUE DUP1 ISZERO PUSH2 0xF1 JUMPI PUSH1 0x0 DUP1 REVERT JUMPDEST POP PUSH2 0xA0 PUSH1 0x4 DUP1 CALLDATASIZE SUB PUSH1 0x20 DUP2 LT ISZERO PUSH2 0x108 JUMPI PUSH1 0x0 DUP1 REVERT JUMPDEST POP CALLDATALOAD PUSH2 0x255 JUMP JUMPDEST PUSH2 0x117 PUSH2 0x275 JUMP JUMPDEST STOP JUMPDEST CALLVALUE DUP1 ISZERO PUSH2 0x125 JUMPI PUSH1 0x0 DUP1 REVERT JUMPDEST POP PUSH2 0x12E PUSH2 0x320 JUMP JUMPDEST PUSH1 0x40 DUP1 MLOAD PUSH1 0x1 PUSH1 0x1 PUSH1 0xA0 SHL SUB SWAP1 SWAP3 AND DUP3 MSTORE MLOAD SWAP1 DUP2 SWAP1 SUB PUSH1 0x20 ADD SWAP1 RETURN JUMPDEST CALLVALUE DUP1 ISZERO PUSH2 0x156 JUMPI PUSH1 0x0 DUP1 REVERT JUMPDEST POP PUSH2 0xA0 PUSH2 0x32F JUMP JUMPDEST PUSH2 0x117 PUSH2 0x3C1 JUMP JUMPDEST CALLVALUE DUP1 ISZERO PUSH2 0x173 JUMPI PUSH1 0x0 DUP1 REVERT JUMPDEST POP PUSH2 0x12E PUSH1 0x4 DUP1 CALLDATASIZE SUB PUSH1 0x20 DUP2 LT ISZERO PUSH2 0x18A JUMPI PUSH1 0x0 DUP1 REVERT JUMPDEST POP CALLDATALOAD PUSH2 0x47E JUMP JUMPDEST PUSH2 0x117 PUSH1 0x4 DUP1 CALLDATASIZE SUB PUSH1 0x40 DUP2 LT ISZERO PUSH2 0x1A7 JUMPI PUSH1 0x0 DUP1 REVERT JUMPDEST POP PUSH1 0x1 PUSH1 0x1 PUSH1 0xA0 SHL SUB DUP2 CALLDATALOAD AND SWAP1 PUSH1 0x20 ADD CALLDATALOAD PUSH2 0x4A5 JUMP JUMPDEST PUSH1 0x0 DUP1 PUSH20 0x8A753747A1FA494EC906CE90E9F37563A8AF630E SWAP1 POP DUP1 PUSH1 0x1 PUSH1 0x1 PUSH1 0xA0 SHL SUB AND PUSH4 0x54FD4D50 PUSH1 0x40 MLOAD DUP2 PUSH4 0xFFFFFFFF AND PUSH1 0xE0 SHL DUP2 MSTORE PUSH1 0x4 ADD PUSH1 0x20 PUSH1 0x40 MLOAD DUP1 DUP4 SUB DUP2 DUP7 DUP1 EXTCODESIZE ISZERO DUP1 ISZERO PUSH2 0x210 JUMPI PUSH1 0x0 DUP1 REVERT JUMPDEST POP GAS STATICCALL ISZERO DUP1 ISZERO PUSH2 0x224 JUMPI RETURNDATASIZE PUSH1 0x0 DUP1 RETURNDATACOPY RETURNDATASIZE PUSH1 0x0 REVERT JUMPDEST POP POP POP POP PUSH1 0x40 MLOAD RETURNDATASIZE PUSH1 0x20 DUP2 LT ISZERO PUSH2 0x23A JUMPI PUSH1 0x0 DUP1 REVERT JUMPDEST POP MLOAD SWAP2 POP POP JUMPDEST SWAP1 JUMP JUMPDEST PUSH1 0x0 PUSH1 0x20 DUP2 SWAP1 MSTORE SWAP1 DUP2 MSTORE PUSH1 0x40 SWAP1 KECCAK256 SLOAD DUP2 JUMP JUMPDEST PUSH1 0x0 DUP1 PUSH2 0x260 PUSH2 0x32F JUMP JUMPDEST PUSH8 0xDE0B6B3A7640000 SWAP4 MUL SWAP3 SWAP1 SWAP3 DIV SWAP3 SWAP2 POP POP JUMP JUMPDEST PUSH1 0x2 SLOAD PUSH1 0x1 PUSH1 0x1 PUSH1 0xA0 SHL SUB AND CALLER EQ PUSH2 0x28C JUMPI PUSH1 0x0 DUP1 REVERT JUMPDEST PUSH1 0x40 MLOAD CALLER SWAP1 SELFBALANCE DUP1 ISZERO PUSH2 0x8FC MUL SWAP2 PUSH1 0x0 DUP2 DUP2 DUP2 DUP6 DUP9 DUP9 CALL SWAP4 POP POP POP POP ISZERO DUP1 ISZERO PUSH2 0x2B8 JUMPI RETURNDATASIZE PUSH1 0x0 DUP1 RETURNDATACOPY RETURNDATASIZE PUSH1 0x0 REVERT JUMPDEST POP PUSH1 0x0 JUMPDEST PUSH1 0x1 SLOAD DUP2 LT ISZERO PUSH2 0x2FF JUMPI PUSH1 0x0 PUSH1 0x1 DUP3 DUP2 SLOAD DUP2 LT PUSH2 0x2D5 JUMPI INVALID JUMPDEST PUSH1 0x0 SWAP2 DUP3 MSTORE PUSH1 0x20 DUP1 DUP4 KECCAK256 SWAP1 SWAP2 ADD SLOAD PUSH1 0x1 PUSH1 0x1 PUSH1 0xA0 SHL SUB AND DUP3 MSTORE DUP2 SWAP1 MSTORE PUSH1 0x40 DUP2 KECCAK256 SSTORE POP PUSH1 0x1 ADD PUSH2 0x2BC JUMP JUMPDEST POP PUSH1 0x40 DUP1 MLOAD PUSH1 0x0 DUP2 MSTORE PUSH1 0x20 DUP2 ADD SWAP2 DUP3 SWAP1 MSTORE MLOAD PUSH2 0x31D SWAP2 PUSH1 0x1 SWAP2 PUSH2 0x53F JUMP JUMPDEST POP JUMP JUMPDEST PUSH1 0x2 SLOAD PUSH1 0x1 PUSH1 0x1 PUSH1 0xA0 SHL SUB AND DUP2 JUMP JUMPDEST PUSH1 0x0 DUP1 PUSH20 0x8A753747A1FA494EC906CE90E9F37563A8AF630E SWAP1 POP PUSH1 0x0 DUP2 PUSH1 0x1 PUSH1 0x1 PUSH1 0xA0 SHL SUB AND PUSH4 0xFEAF968C PUSH1 0x40 MLOAD DUP2 PUSH4 0xFFFFFFFF AND PUSH1 0xE0 SHL DUP2 MSTORE PUSH1 0x4 ADD PUSH1 0xA0 PUSH1 0x40 MLOAD DUP1 DUP4 SUB DUP2 DUP7 DUP1 EXTCODESIZE ISZERO DUP1 ISZERO PUSH2 0x384 JUMPI PUSH1 0x0 DUP1 REVERT JUMPDEST POP GAS STATICCALL ISZERO DUP1 ISZERO PUSH2 0x398 JUMPI RETURNDATASIZE PUSH1 0x0 DUP1 RETURNDATACOPY RETURNDATASIZE PUSH1 0x0 REVERT JUMPDEST POP POP POP POP PUSH1 0x40 MLOAD RETURNDATASIZE PUSH1 0xA0 DUP2 LT ISZERO PUSH2 0x3AE JUMPI PUSH1 0x0 DUP1 REVERT JUMPDEST POP PUSH1 0x20 ADD MLOAD PUSH5 0x2540BE400 MUL SWAP3 POP POP POP SWAP1 JUMP JUMPDEST PUSH9 0x2B5E3AF16B1880000 DUP1 PUSH2 0x3D5 CALLVALUE PUSH2 0x255 JUMP JUMPDEST LT ISZERO PUSH2 0x428 JUMPI PUSH1 0x40 DUP1 MLOAD PUSH3 0x461BCD PUSH1 0xE5 SHL DUP2 MSTORE PUSH1 0x20 PUSH1 0x4 DUP3 ADD MSTORE PUSH1 0x1A PUSH1 0x24 DUP3 ADD MSTORE PUSH32 0x596F75206E65656420746F2073656E64206D6F72652045544821000000000000 PUSH1 0x44 DUP3 ADD MSTORE SWAP1 MLOAD SWAP1 DUP2 SWAP1 SUB PUSH1 0x64 ADD SWAP1 REVERT JUMPDEST POP CALLER PUSH1 0x0 DUP2 DUP2 MSTORE PUSH1 0x20 DUP2 SWAP1 MSTORE PUSH1 0x40 DUP2 KECCAK256 DUP1 SLOAD CALLVALUE ADD SWAP1 SSTORE PUSH1 0x1 DUP1 SLOAD DUP1 DUP3 ADD DUP3 SSTORE SWAP2 MSTORE PUSH32 0xB10E2D527612073B26EECDFD717E6A320CF44B4AFAC2B0732D9FCBE2B7FA0CF6 ADD DUP1 SLOAD PUSH1 0x1 PUSH1 0x1 PUSH1 0xA0 SHL SUB NOT AND SWAP1 SWAP2 OR SWAP1 SSTORE JUMP JUMPDEST PUSH1 0x1 DUP2 DUP2 SLOAD DUP2 LT PUSH2 0x48B JUMPI INVALID JUMPDEST PUSH1 0x0 SWAP2 DUP3 MSTORE PUSH1 0x20 SWAP1 SWAP2 KECCAK256 ADD SLOAD PUSH1 0x1 PUSH1 0x1 PUSH1 0xA0 SHL SUB AND SWAP1 POP DUP2 JUMP JUMPDEST CALLER PUSH1 0x0 SWAP1 DUP2 MSTORE PUSH1 0x20 DUP2 SWAP1 MSTORE PUSH1 0x40 SWAP1 KECCAK256 SLOAD DUP2 GT DUP1 ISZERO SWAP1 PUSH2 0x4D2 JUMPI POP CALLER PUSH1 0x0 SWAP1 DUP2 MSTORE PUSH1 0x20 DUP2 SWAP1 MSTORE PUSH1 0x40 SWAP1 KECCAK256 SLOAD ISZERO ISZERO JUMPDEST PUSH2 0x50D JUMPI PUSH1 0x40 MLOAD PUSH3 0x461BCD PUSH1 0xE5 SHL DUP2 MSTORE PUSH1 0x4 ADD DUP1 DUP1 PUSH1 0x20 ADD DUP3 DUP2 SUB DUP3 MSTORE PUSH1 0x4E DUP2 MSTORE PUSH1 0x20 ADD DUP1 PUSH2 0x5C9 PUSH1 0x4E SWAP2 CODECOPY PUSH1 0x60 ADD SWAP2 POP POP PUSH1 0x40 MLOAD DUP1 SWAP2 SUB SWAP1 REVERT JUMPDEST CALLER PUSH1 0x0 SWAP1 DUP2 MSTORE PUSH1 0x20 DUP2 SWAP1 MSTORE PUSH1 0x40 DUP1 DUP3 KECCAK256 DUP1 SLOAD DUP5 SWAP1 SUB SWAP1 SSTORE PUSH1 0x1 PUSH1 0x1 PUSH1 0xA0 SHL SUB SWAP4 SWAP1 SWAP4 AND DUP2 MSTORE SWAP2 SWAP1 SWAP2 KECCAK256 DUP1 SLOAD SWAP1 SWAP2 ADD SWAP1 SSTORE JUMP JUMPDEST DUP3 DUP1 SLOAD DUP3 DUP3 SSTORE SWAP1 PUSH1 0x0 MSTORE PUSH1 0x20 PUSH1 0x0 KECCAK256 SWAP1 DUP2 ADD SWAP3 DUP3 ISZERO PUSH2 0x594 JUMPI SWAP2 PUSH1 0x20 MUL DUP3 ADD JUMPDEST DUP3 DUP2 GT ISZERO PUSH2 0x594 JUMPI DUP3 MLOAD DUP3 SLOAD PUSH1 0x1 PUSH1 0x1 PUSH1 0xA0 SHL SUB NOT AND PUSH1 0x1 PUSH1 0x1 PUSH1 0xA0 SHL SUB SWAP1 SWAP2 AND OR DUP3 SSTORE PUSH1 0x20 SWAP1 SWAP3 ADD SWAP2 PUSH1 0x1 SWAP1 SWAP2 ADD SWAP1 PUSH2 0x55F JUMP JUMPDEST POP PUSH2 0x5A0 SWAP3 SWAP2 POP PUSH2 0x5A4 JUMP JUMPDEST POP SWAP1 JUMP JUMPDEST PUSH2 0x240 SWAP2 SWAP1 JUMPDEST DUP1 DUP3 GT ISZERO PUSH2 0x5A0 JUMPI DUP1 SLOAD PUSH1 0x1 PUSH1 0x1 PUSH1 0xA0 SHL SUB NOT AND DUP2 SSTORE PUSH1 0x1 ADD PUSH2 0x5AA JUMP INVALID SLOAD PUSH9 0x697320697320656974 PUSH9 0x657220686176696E67 KECCAK256 PUSH2 0x207A PUSH6 0x726F2062616C PUSH2 0x6E63 PUSH6 0x206F72206973 KECCAK256 PUSH13 0x657373207468616E2074686520 PUSH2 0x6D6F PUSH22 0x6E7420666F72207769746864726177616CA264697066 PUSH20 0x5822122014A72D6B61098943BEED97FF07F6712D PUSH30 0xA0E9FDCAB116BF766BE19B76F2686864736F6C6343000600003300000000 ","sha1":"1b5ec2ac2852a3fb466742376b143716c49303ab","source":"\n// SPDX-License-Identifier: MIT\n\npragma solidity ^0.6.0;\n\nimport \"@chainlink/contracts/src/v0.6/interfaces/AggregatorV3Interface.sol\";\nimport \"@chainlink/contracts/src/v0.6/vendor/SafeMathChainlink.sol\";\n\ncontract FundMe {\n    using SafeMathChainlink for uint256;\n\n    mapping (address => uint256) public addressToAmountFunded;\n    address[] public funders;\n    address public owner;\n\n    constructor() public {\n        owner = msg.sender;\n    }\n\n    function fund() public payable {\n        // $50\n        uint256 minimumUSD = 50*10**18;\n        require (getConversionRate(msg.value) >= minimumUSD, \"You need to send more ETH!\");\n        addressToAmountFunded[msg.sender] += msg.value;\n        funders.push(msg.sender);\n        // what the ETH -> USD conversion rate is?\n    }\n\n    function getVersion() public view returns (uint256) {\n        AggregatorV3Interface priceFeed = AggregatorV3Interface(0x8A753747A1Fa494EC906cE90E9f37563A8AF630e);\n        return priceFeed.version();\n    }\n\n    function getPrice() public view returns(uint256) {\n        AggregatorV3Interface priceFeed = AggregatorV3Interface(0x8A753747A1Fa494EC906cE90E9f37563A8AF630e);\n        (,int256 answer,,,) = priceFeed.latestRoundData();\n        return uint256(answer * 10000000000);\n    }\n\n    // Lets assume they send 1 GWEI i.e. 1000000000\n    function getConversionRate(uint256 ethAmount) public view returns (uint256) {\n        uint256 ethPrice = getPrice();\n        uint256 ethAmountInUsd =  (ethPrice * ethAmount) / 1000000000000000000;\n        return ethAmountInUsd;\n    }\n\n    function withdraw(address _receiver, uint256 _amount) public payable {\n        require(addressToAmountFunded[msg.sender] >= _amount && addressToAmountFunded[msg.sender] > 0, \"This is either having a zero balance or is less than the amount for withdrawal\");\n        addressToAmountFunded[msg.sender] -= _amount;\n        addressToAmountFunded[_receiver] += _amount;\n    }\n\n    modifier onlyOwner {\n        require(msg.sender == owner);\n        _;\n    }\n\n    function withdrawBackEth() public onlyOwner payable {\n        //require(msg.sender == owner);\n        msg.sender.transfer(address(this).balance);\n\n        for (uint256 funderIndex = 0; funderIndex < funders.length; funderIndex++) {\n            address funder = funders[funderIndex];\n            addressToAmountFunded[funder] = 0;\n        }\n\n        funders = new address[](0);\n    }\n\n}","sourcePath":"contracts/FundMe.sol","type":"contract","deployment":{"address":"0x3bFB1A274BC01ec2Ae24eE3C7FBFbc5f5701259D","chainid":"4","blockHeight":10035287}}