{"abi":[{"inputs":[{"internalType":"address","name":"_priceFeed","type":"address"}],"stateMutability":"nonpayable","type":"constructor","name":"constructor"},{"inputs":[{"internalType":"address","name":"","type":"address"}],"name":"addressToAmountFunded","outputs":[{"internalType":"uint256","name":"","type":"uint256"}],"stateMutability":"view","type":"function"},{"inputs":[],"name":"fund","outputs":[],"stateMutability":"payable","type":"function"},{"inputs":[{"internalType":"uint256","name":"","type":"uint256"}],"name":"funders","outputs":[{"internalType":"address","name":"","type":"address"}],"stateMutability":"view","type":"function"},{"inputs":[{"internalType":"uint256","name":"ethAmount","type":"uint256"}],"name":"getConversionRate","outputs":[{"internalType":"uint256","name":"","type":"uint256"}],"stateMutability":"view","type":"function"},{"inputs":[],"name":"getEntranceFee","outputs":[{"internalType":"uint256","name":"","type":"uint256"}],"stateMutability":"view","type":"function"},{"inputs":[],"name":"getPrice","outputs":[{"internalType":"uint256","name":"","type":"uint256"}],"stateMutability":"view","type":"function"},{"inputs":[],"name":"getVersion","outputs":[{"internalType":"uint256","name":"","type":"uint256"}],"stateMutability":"view","type":"function"},{"inputs":[],"name":"owner","outputs":[{"internalType":"address","name":"","type":"address"}],"stateMutability":"view","type":"function"},{"inputs":[],"name":"priceFeed","outputs":[{"internalType":"contract AggregatorV3Interface","name":"","type":"address"}],"stateMutability":"view","type":"function"},{"inputs":[{"internalType":"address","name":"_receiver","type":"address"},{"internalType":"uint256","name":"_amount","type":"uint256"}],"name":"withdraw","outputs":[],"stateMutability":"payable","type":"function"},{"inputs":[],"name":"withdrawBackEth","outputs":[],"stateMutability":"payable","type":"function"}],"bytecode":"608060405234801561001057600080fd5b506040516107283803806107288339818101604052602081101561003357600080fd5b5051600380546001600160a01b039092166001600160a01b031992831617905560028054909116331790556106bb8061006d6000396000f3fe60806040526004361061009c5760003560e01c806387aa27551161006457806387aa27551461016b5780638da5cb5b1461017557806398d5fdca1461018a578063b60d42881461019f578063dc0d3dff146101a7578063f3fef3a3146101d15761009c565b806309bc33a7146100a15780630d8e6e2c146100c85780633e47d6f3146100dd5780636e5b6b2814610110578063741bef1a1461013a575b600080fd5b3480156100ad57600080fd5b506100b66101fd565b60408051918252519081900360200190f35b3480156100d457600080fd5b506100b6610232565b3480156100e957600080fd5b506100b66004803603602081101561010057600080fd5b50356001600160a01b03166102a8565b34801561011c57600080fd5b506100b66004803603602081101561013357600080fd5b50356102ba565b34801561014657600080fd5b5061014f6102da565b604080516001600160a01b039092168252519081900360200190f35b6101736102e9565b005b34801561018157600080fd5b5061014f610394565b34801561019657600080fd5b506100b66103a3565b610173610430565b3480156101b357600080fd5b5061014f600480360360208110156101ca57600080fd5b50356104ed565b610173600480360360408110156101e757600080fd5b506001600160a01b038135169060200135610514565b60006802b5e3af16b1880000816102126103a3565b9050670de0b6b3a7640000818382028161022857fe5b0493505050505b90565b6003546040805163054fd4d560e41b815290516000926001600160a01b0316916354fd4d50916004808301926020929190829003018186803b15801561027757600080fd5b505afa15801561028b573d6000803e3d6000fd5b505050506040513d60208110156102a157600080fd5b5051905090565b60006020819052908152604090205481565b6000806102c56103a3565b670de0b6b3a764000093029290920492915050565b6003546001600160a01b031681565b6002546001600160a01b0316331461030057600080fd5b60405133904780156108fc02916000818181858888f1935050505015801561032c573d6000803e3d6000fd5b5060005b6001548110156103735760006001828154811061034957fe5b60009182526020808320909101546001600160a01b03168252819052604081205550600101610330565b506040805160008152602081019182905251610391916001916105ae565b50565b6002546001600160a01b031681565b600080600360009054906101000a90046001600160a01b03166001600160a01b031663feaf968c6040518163ffffffff1660e01b815260040160a06040518083038186803b1580156103f457600080fd5b505afa158015610408573d6000803e3d6000fd5b505050506040513d60a081101561041e57600080fd5b50602001516402540be4000291505090565b6802b5e3af16b188000080610444346102ba565b1015610497576040805162461bcd60e51b815260206004820152601a60248201527f596f75206e65656420746f2073656e64206d6f72652045544821000000000000604482015290519081900360640190fd5b5033600081815260208190526040812080543401905560018054808201825591527fb10e2d527612073b26eecdfd717e6a320cf44b4afac2b0732d9fcbe2b7fa0cf60180546001600160a01b0319169091179055565b600181815481106104fa57fe5b6000918252602090912001546001600160a01b0316905081565b33600090815260208190526040902054811180159061054157503360009081526020819052604090205415155b61057c5760405162461bcd60e51b815260040180806020018281038252604e815260200180610638604e913960600191505060405180910390fd5b33600090815260208190526040808220805484900390556001600160a01b039390931681529190912080549091019055565b828054828255906000526020600020908101928215610603579160200282015b8281111561060357825182546001600160a01b0319166001600160a01b039091161782556020909201916001909101906105ce565b5061060f929150610613565b5090565b61022f91905b8082111561060f5780546001600160a01b031916815560010161061956fe546869732069732065697468657220686176696e672061207a65726f2062616c616e6365206f72206973206c657373207468616e2074686520616d6f756e7420666f72207769746864726177616ca2646970667358221220f4df79ecd4b907ecf258a9b7ea54c5c327ee98e1de21ac3fdae0cc79536d861d64736f6c63430006000033","bytecodeSha1":"8991961fcd2ae0e9c5fb4389402d690721174cb7","compiler":{"evm_version":"istanbul","optimizer":{"enabled":true,"runs":200},"version":"0.6.0+commit.26b70077"},"contractName":"FundMe","language":"Solidity","natspec":{"methods":{}},"opcodes":"PUSH1 0x80 PUSH1 0x40 MSTORE PUSH1 0x4 CALLDATASIZE LT PUSH2 0x9C JUMPI PUSH1 0x0 CALLDATALOAD PUSH1 0xE0 SHR DUP1 PUSH4 0x87AA2755 GT PUSH2 0x64 JUMPI DUP1 PUSH4 0x87AA2755 EQ PUSH2 0x16B JUMPI DUP1 PUSH4 0x8DA5CB5B EQ PUSH2 0x175 JUMPI DUP1 PUSH4 0x98D5FDCA EQ PUSH2 0x18A JUMPI DUP1 PUSH4 0xB60D4288 EQ PUSH2 0x19F JUMPI DUP1 PUSH4 0xDC0D3DFF EQ PUSH2 0x1A7 JUMPI DUP1 PUSH4 0xF3FEF3A3 EQ PUSH2 0x1D1 JUMPI PUSH2 0x9C JUMP JUMPDEST DUP1 PUSH4 0x9BC33A7 EQ PUSH2 0xA1 JUMPI DUP1 PUSH4 0xD8E6E2C EQ PUSH2 0xC8 JUMPI DUP1 PUSH4 0x3E47D6F3 EQ PUSH2 0xDD JUMPI DUP1 PUSH4 0x6E5B6B28 EQ PUSH2 0x110 JUMPI DUP1 PUSH4 0x741BEF1A EQ PUSH2 0x13A JUMPI JUMPDEST PUSH1 0x0 DUP1 REVERT JUMPDEST CALLVALUE DUP1 ISZERO PUSH2 0xAD JUMPI PUSH1 0x0 DUP1 REVERT JUMPDEST POP PUSH2 0xB6 PUSH2 0x1FD JUMP JUMPDEST PUSH1 0x40 DUP1 MLOAD SWAP2 DUP3 MSTORE MLOAD SWAP1 DUP2 SWAP1 SUB PUSH1 0x20 ADD SWAP1 RETURN JUMPDEST CALLVALUE DUP1 ISZERO PUSH2 0xD4 JUMPI PUSH1 0x0 DUP1 REVERT JUMPDEST POP PUSH2 0xB6 PUSH2 0x232 JUMP JUMPDEST CALLVALUE DUP1 ISZERO PUSH2 0xE9 JUMPI PUSH1 0x0 DUP1 REVERT JUMPDEST POP PUSH2 0xB6 PUSH1 0x4 DUP1 CALLDATASIZE SUB PUSH1 0x20 DUP2 LT ISZERO PUSH2 0x100 JUMPI PUSH1 0x0 DUP1 REVERT JUMPDEST POP CALLDATALOAD PUSH1 0x1 PUSH1 0x1 PUSH1 0xA0 SHL SUB AND PUSH2 0x2A8 JUMP JUMPDEST CALLVALUE DUP1 ISZERO PUSH2 0x11C JUMPI PUSH1 0x0 DUP1 REVERT JUMPDEST POP PUSH2 0xB6 PUSH1 0x4 DUP1 CALLDATASIZE SUB PUSH1 0x20 DUP2 LT ISZERO PUSH2 0x133 JUMPI PUSH1 0x0 DUP1 REVERT JUMPDEST POP CALLDATALOAD PUSH2 0x2BA JUMP JUMPDEST CALLVALUE DUP1 ISZERO PUSH2 0x146 JUMPI PUSH1 0x0 DUP1 REVERT JUMPDEST POP PUSH2 0x14F PUSH2 0x2DA JUMP JUMPDEST PUSH1 0x40 DUP1 MLOAD PUSH1 0x1 PUSH1 0x1 PUSH1 0xA0 SHL SUB SWAP1 SWAP3 AND DUP3 MSTORE MLOAD SWAP1 DUP2 SWAP1 SUB PUSH1 0x20 ADD SWAP1 RETURN JUMPDEST PUSH2 0x173 PUSH2 0x2E9 JUMP JUMPDEST STOP JUMPDEST CALLVALUE DUP1 ISZERO PUSH2 0x181 JUMPI PUSH1 0x0 DUP1 REVERT JUMPDEST POP PUSH2 0x14F PUSH2 0x394 JUMP JUMPDEST CALLVALUE DUP1 ISZERO PUSH2 0x196 JUMPI PUSH1 0x0 DUP1 REVERT JUMPDEST POP PUSH2 0xB6 PUSH2 0x3A3 JUMP JUMPDEST PUSH2 0x173 PUSH2 0x430 JUMP JUMPDEST CALLVALUE DUP1 ISZERO PUSH2 0x1B3 JUMPI PUSH1 0x0 DUP1 REVERT JUMPDEST POP PUSH2 0x14F PUSH1 0x4 DUP1 CALLDATASIZE SUB PUSH1 0x20 DUP2 LT ISZERO PUSH2 0x1CA JUMPI PUSH1 0x0 DUP1 REVERT JUMPDEST POP CALLDATALOAD PUSH2 0x4ED JUMP JUMPDEST PUSH2 0x173 PUSH1 0x4 DUP1 CALLDATASIZE SUB PUSH1 0x40 DUP2 LT ISZERO PUSH2 0x1E7 JUMPI PUSH1 0x0 DUP1 REVERT JUMPDEST POP PUSH1 0x1 PUSH1 0x1 PUSH1 0xA0 SHL SUB DUP2 CALLDATALOAD AND SWAP1 PUSH1 0x20 ADD CALLDATALOAD PUSH2 0x514 JUMP JUMPDEST PUSH1 0x0 PUSH9 0x2B5E3AF16B1880000 DUP2 PUSH2 0x212 PUSH2 0x3A3 JUMP JUMPDEST SWAP1 POP PUSH8 0xDE0B6B3A7640000 DUP2 DUP4 DUP3 MUL DUP2 PUSH2 0x228 JUMPI INVALID JUMPDEST DIV SWAP4 POP POP POP POP JUMPDEST SWAP1 JUMP JUMPDEST PUSH1 0x3 SLOAD PUSH1 0x40 DUP1 MLOAD PUSH4 0x54FD4D5 PUSH1 0xE4 SHL DUP2 MSTORE SWAP1 MLOAD PUSH1 0x0 SWAP3 PUSH1 0x1 PUSH1 0x1 PUSH1 0xA0 SHL SUB AND SWAP2 PUSH4 0x54FD4D50 SWAP2 PUSH1 0x4 DUP1 DUP4 ADD SWAP3 PUSH1 0x20 SWAP3 SWAP2 SWAP1 DUP3 SWAP1 SUB ADD DUP2 DUP7 DUP1 EXTCODESIZE ISZERO DUP1 ISZERO PUSH2 0x277 JUMPI PUSH1 0x0 DUP1 REVERT JUMPDEST POP GAS STATICCALL ISZERO DUP1 ISZERO PUSH2 0x28B JUMPI RETURNDATASIZE PUSH1 0x0 DUP1 RETURNDATACOPY RETURNDATASIZE PUSH1 0x0 REVERT JUMPDEST POP POP POP POP PUSH1 0x40 MLOAD RETURNDATASIZE PUSH1 0x20 DUP2 LT ISZERO PUSH2 0x2A1 JUMPI PUSH1 0x0 DUP1 REVERT JUMPDEST POP MLOAD SWAP1 POP SWAP1 JUMP JUMPDEST PUSH1 0x0 PUSH1 0x20 DUP2 SWAP1 MSTORE SWAP1 DUP2 MSTORE PUSH1 0x40 SWAP1 KECCAK256 SLOAD DUP2 JUMP JUMPDEST PUSH1 0x0 DUP1 PUSH2 0x2C5 PUSH2 0x3A3 JUMP JUMPDEST PUSH8 0xDE0B6B3A7640000 SWAP4 MUL SWAP3 SWAP1 SWAP3 DIV SWAP3 SWAP2 POP POP JUMP JUMPDEST PUSH1 0x3 SLOAD PUSH1 0x1 PUSH1 0x1 PUSH1 0xA0 SHL SUB AND DUP2 JUMP JUMPDEST PUSH1 0x2 SLOAD PUSH1 0x1 PUSH1 0x1 PUSH1 0xA0 SHL SUB AND CALLER EQ PUSH2 0x300 JUMPI PUSH1 0x0 DUP1 REVERT JUMPDEST PUSH1 0x40 MLOAD CALLER SWAP1 SELFBALANCE DUP1 ISZERO PUSH2 0x8FC MUL SWAP2 PUSH1 0x0 DUP2 DUP2 DUP2 DUP6 DUP9 DUP9 CALL SWAP4 POP POP POP POP ISZERO DUP1 ISZERO PUSH2 0x32C JUMPI RETURNDATASIZE PUSH1 0x0 DUP1 RETURNDATACOPY RETURNDATASIZE PUSH1 0x0 REVERT JUMPDEST POP PUSH1 0x0 JUMPDEST PUSH1 0x1 SLOAD DUP2 LT ISZERO PUSH2 0x373 JUMPI PUSH1 0x0 PUSH1 0x1 DUP3 DUP2 SLOAD DUP2 LT PUSH2 0x349 JUMPI INVALID JUMPDEST PUSH1 0x0 SWAP2 DUP3 MSTORE PUSH1 0x20 DUP1 DUP4 KECCAK256 SWAP1 SWAP2 ADD SLOAD PUSH1 0x1 PUSH1 0x1 PUSH1 0xA0 SHL SUB AND DUP3 MSTORE DUP2 SWAP1 MSTORE PUSH1 0x40 DUP2 KECCAK256 SSTORE POP PUSH1 0x1 ADD PUSH2 0x330 JUMP JUMPDEST POP PUSH1 0x40 DUP1 MLOAD PUSH1 0x0 DUP2 MSTORE PUSH1 0x20 DUP2 ADD SWAP2 DUP3 SWAP1 MSTORE MLOAD PUSH2 0x391 SWAP2 PUSH1 0x1 SWAP2 PUSH2 0x5AE JUMP JUMPDEST POP JUMP JUMPDEST PUSH1 0x2 SLOAD PUSH1 0x1 PUSH1 0x1 PUSH1 0xA0 SHL SUB AND DUP2 JUMP JUMPDEST PUSH1 0x0 DUP1 PUSH1 0x3 PUSH1 0x0 SWAP1 SLOAD SWAP1 PUSH2 0x100 EXP SWAP1 DIV PUSH1 0x1 PUSH1 0x1 PUSH1 0xA0 SHL SUB AND PUSH1 0x1 PUSH1 0x1 PUSH1 0xA0 SHL SUB AND PUSH4 0xFEAF968C PUSH1 0x40 MLOAD DUP2 PUSH4 0xFFFFFFFF AND PUSH1 0xE0 SHL DUP2 MSTORE PUSH1 0x4 ADD PUSH1 0xA0 PUSH1 0x40 MLOAD DUP1 DUP4 SUB DUP2 DUP7 DUP1 EXTCODESIZE ISZERO DUP1 ISZERO PUSH2 0x3F4 JUMPI PUSH1 0x0 DUP1 REVERT JUMPDEST POP GAS STATICCALL ISZERO DUP1 ISZERO PUSH2 0x408 JUMPI RETURNDATASIZE PUSH1 0x0 DUP1 RETURNDATACOPY RETURNDATASIZE PUSH1 0x0 REVERT JUMPDEST POP POP POP POP PUSH1 0x40 MLOAD RETURNDATASIZE PUSH1 0xA0 DUP2 LT ISZERO PUSH2 0x41E JUMPI PUSH1 0x0 DUP1 REVERT JUMPDEST POP PUSH1 0x20 ADD MLOAD PUSH5 0x2540BE400 MUL SWAP2 POP POP SWAP1 JUMP JUMPDEST PUSH9 0x2B5E3AF16B1880000 DUP1 PUSH2 0x444 CALLVALUE PUSH2 0x2BA JUMP JUMPDEST LT ISZERO PUSH2 0x497 JUMPI PUSH1 0x40 DUP1 MLOAD PUSH3 0x461BCD PUSH1 0xE5 SHL DUP2 MSTORE PUSH1 0x20 PUSH1 0x4 DUP3 ADD MSTORE PUSH1 0x1A PUSH1 0x24 DUP3 ADD MSTORE PUSH32 0x596F75206E65656420746F2073656E64206D6F72652045544821000000000000 PUSH1 0x44 DUP3 ADD MSTORE SWAP1 MLOAD SWAP1 DUP2 SWAP1 SUB PUSH1 0x64 ADD SWAP1 REVERT JUMPDEST POP CALLER PUSH1 0x0 DUP2 DUP2 MSTORE PUSH1 0x20 DUP2 SWAP1 MSTORE PUSH1 0x40 DUP2 KECCAK256 DUP1 SLOAD CALLVALUE ADD SWAP1 SSTORE PUSH1 0x1 DUP1 SLOAD DUP1 DUP3 ADD DUP3 SSTORE SWAP2 MSTORE PUSH32 0xB10E2D527612073B26EECDFD717E6A320CF44B4AFAC2B0732D9FCBE2B7FA0CF6 ADD DUP1 SLOAD PUSH1 0x1 PUSH1 0x1 PUSH1 0xA0 SHL SUB NOT AND SWAP1 SWAP2 OR SWAP1 SSTORE JUMP JUMPDEST PUSH1 0x1 DUP2 DUP2 SLOAD DUP2 LT PUSH2 0x4FA JUMPI INVALID JUMPDEST PUSH1 0x0 SWAP2 DUP3 MSTORE PUSH1 0x20 SWAP1 SWAP2 KECCAK256 ADD SLOAD PUSH1 0x1 PUSH1 0x1 PUSH1 0xA0 SHL SUB AND SWAP1 POP DUP2 JUMP JUMPDEST CALLER PUSH1 0x0 SWAP1 DUP2 MSTORE PUSH1 0x20 DUP2 SWAP1 MSTORE PUSH1 0x40 SWAP1 KECCAK256 SLOAD DUP2 GT DUP1 ISZERO SWAP1 PUSH2 0x541 JUMPI POP CALLER PUSH1 0x0 SWAP1 DUP2 MSTORE PUSH1 0x20 DUP2 SWAP1 MSTORE PUSH1 0x40 SWAP1 KECCAK256 SLOAD ISZERO ISZERO JUMPDEST PUSH2 0x57C JUMPI PUSH1 0x40 MLOAD PUSH3 0x461BCD PUSH1 0xE5 SHL DUP2 MSTORE PUSH1 0x4 ADD DUP1 DUP1 PUSH1 0x20 ADD DUP3 DUP2 SUB DUP3 MSTORE PUSH1 0x4E DUP2 MSTORE PUSH1 0x20 ADD DUP1 PUSH2 0x638 PUSH1 0x4E SWAP2 CODECOPY PUSH1 0x60 ADD SWAP2 POP POP PUSH1 0x40 MLOAD DUP1 SWAP2 SUB SWAP1 REVERT JUMPDEST CALLER PUSH1 0x0 SWAP1 DUP2 MSTORE PUSH1 0x20 DUP2 SWAP1 MSTORE PUSH1 0x40 DUP1 DUP3 KECCAK256 DUP1 SLOAD DUP5 SWAP1 SUB SWAP1 SSTORE PUSH1 0x1 PUSH1 0x1 PUSH1 0xA0 SHL SUB SWAP4 SWAP1 SWAP4 AND DUP2 MSTORE SWAP2 SWAP1 SWAP2 KECCAK256 DUP1 SLOAD SWAP1 SWAP2 ADD SWAP1 SSTORE JUMP JUMPDEST DUP3 DUP1 SLOAD DUP3 DUP3 SSTORE SWAP1 PUSH1 0x0 MSTORE PUSH1 0x20 PUSH1 0x0 KECCAK256 SWAP1 DUP2 ADD SWAP3 DUP3 ISZERO PUSH2 0x603 JUMPI SWAP2 PUSH1 0x20 MUL DUP3 ADD JUMPDEST DUP3 DUP2 GT ISZERO PUSH2 0x603 JUMPI DUP3 MLOAD DUP3 SLOAD PUSH1 0x1 PUSH1 0x1 PUSH1 0xA0 SHL SUB NOT AND PUSH1 0x1 PUSH1 0x1 PUSH1 0xA0 SHL SUB SWAP1 SWAP2 AND OR DUP3 SSTORE PUSH1 0x20 SWAP1 SWAP3 ADD SWAP2 PUSH1 0x1 SWAP1 SWAP2 ADD SWAP1 PUSH2 0x5CE JUMP JUMPDEST POP PUSH2 0x60F SWAP3 SWAP2 POP PUSH2 0x613 JUMP JUMPDEST POP SWAP1 JUMP JUMPDEST PUSH2 0x22F SWAP2 SWAP1 JUMPDEST DUP1 DUP3 GT ISZERO PUSH2 0x60F JUMPI DUP1 SLOAD PUSH1 0x1 PUSH1 0x1 PUSH1 0xA0 SHL SUB NOT AND DUP2 SSTORE PUSH1 0x1 ADD PUSH2 0x619 JUMP INVALID SLOAD PUSH9 0x697320697320656974 PUSH9 0x657220686176696E67 KECCAK256 PUSH2 0x207A PUSH6 0x726F2062616C PUSH2 0x6E63 PUSH6 0x206F72206973 KECCAK256 PUSH13 0x657373207468616E2074686520 PUSH2 0x6D6F PUSH22 0x6E7420666F72207769746864726177616CA264697066 PUSH20 0x58221220F4DF79ECD4B907ECF258A9B7EA54C5C3 0x27 0xEE SWAP9 0xE1 0xDE 0x21 0xAC EXTCODEHASH 0xDA 0xE0 0xCC PUSH26 0x536D861D64736F6C634300060000330000000000000000000000 ","sha1":"3be9455b423a3646fc7429f43018e2db488fcb62","source":"\n// SPDX-License-Identifier: MIT\n\npragma solidity ^0.6.0;\n\nimport \"@chainlink/contracts/src/v0.6/interfaces/AggregatorV3Interface.sol\";\nimport \"@chainlink/contracts/src/v0.6/vendor/SafeMathChainlink.sol\";\n\ncontract FundMe {\n    using SafeMathChainlink for uint256;\n\n    mapping (address => uint256) public addressToAmountFunded;\n    address[] public funders;\n    address public owner;\n    AggregatorV3Interface public priceFeed;\n\n    constructor(address _priceFeed) public {\n        priceFeed = AggregatorV3Interface(_priceFeed);\n        owner = msg.sender;\n    }\n\n    function fund() public payable {\n        // $50\n        uint256 minimumUSD = 50*10**18;\n        require (getConversionRate(msg.value) >= minimumUSD, \"You need to send more ETH!\");\n        addressToAmountFunded[msg.sender] += msg.value;\n        funders.push(msg.sender);\n        // what the ETH -> USD conversion rate is?\n    }\n\n    function getVersion() public view returns (uint256) {\n        return priceFeed.version();\n    }\n\n    function getPrice() public view returns(uint256) {\n        (,int256 answer,,,) = priceFeed.latestRoundData();\n        return uint256(answer * 10000000000);\n    }\n\n    // Lets assume they send 1 GWEI i.e. 1000000000\n    function getConversionRate(uint256 ethAmount) public view returns (uint256) {\n        uint256 ethPrice = getPrice();\n        uint256 ethAmountInUsd =  (ethPrice * ethAmount) / 1000000000000000000;\n        return ethAmountInUsd;\n    }\n\n    function getEntranceFee() public view returns (uint256) {\n        // minimumUSD\n        uint256 minimumUSD = 50 * 10**18;\n        uint256 price = getPrice();\n        uint256 precision = 1 * 10**18;\n        return (minimumUSD * precision) / price;\n    }\n\n    function withdraw(address _receiver, uint256 _amount) public payable {\n        require(addressToAmountFunded[msg.sender] >= _amount && addressToAmountFunded[msg.sender] > 0, \"This is either having a zero balance or is less than the amount for withdrawal\");\n        addressToAmountFunded[msg.sender] -= _amount;\n        addressToAmountFunded[_receiver] += _amount;\n    }\n\n    modifier onlyOwner {\n        require(msg.sender == owner);\n        _;\n    }\n\n    function withdrawBackEth() public onlyOwner payable {\n        //require(msg.sender == owner);\n        msg.sender.transfer(address(this).balance);\n\n        for (uint256 funderIndex = 0; funderIndex < funders.length; funderIndex++) {\n            address funder = funders[funderIndex];\n            addressToAmountFunded[funder] = 0;\n        }\n\n        funders = new address[](0);\n    }\n\n}","sourcePath":"contracts/FundMe.sol","type":"contract","deployment":{"address":"0x5792A4ECBeA4DBa24AE5240a5a93607771C305BD","chainid":"4","blockHeight":10051619}}